{
  "_format": "hh-sol-artifact-1",
  "contractName": "PrizePool",
  "sourceName": "contracts/PrizePool.sol",
  "abi": [
    {
      "inputs": [
        {
          "internalType": "address",
          "name": "_token",
          "type": "address"
        }
      ],
      "stateMutability": "nonpayable",
      "type": "constructor"
    },
    {
      "inputs": [
        {
          "internalType": "address",
          "name": "owner",
          "type": "address"
        }
      ],
      "name": "OwnableInvalidOwner",
      "type": "error"
    },
    {
      "inputs": [
        {
          "internalType": "address",
          "name": "account",
          "type": "address"
        }
      ],
      "name": "OwnableUnauthorizedAccount",
      "type": "error"
    },
    {
      "inputs": [
        {
          "internalType": "address",
          "name": "token",
          "type": "address"
        }
      ],
      "name": "SafeERC20FailedOperation",
      "type": "error"
    },
    {
      "anonymous": false,
      "inputs": [
        {
          "indexed": true,
          "internalType": "uint256",
          "name": "roundId",
          "type": "uint256"
        },
        {
          "indexed": true,
          "internalType": "address",
          "name": "player",
          "type": "address"
        },
        {
          "indexed": false,
          "internalType": "uint256",
          "name": "amount",
          "type": "uint256"
        }
      ],
      "name": "Deposited",
      "type": "event"
    },
    {
      "anonymous": false,
      "inputs": [
        {
          "indexed": true,
          "internalType": "address",
          "name": "previousOwner",
          "type": "address"
        },
        {
          "indexed": true,
          "internalType": "address",
          "name": "newOwner",
          "type": "address"
        }
      ],
      "name": "OwnershipTransferred",
      "type": "event"
    },
    {
      "anonymous": false,
      "inputs": [
        {
          "indexed": true,
          "internalType": "uint256",
          "name": "roundId",
          "type": "uint256"
        },
        {
          "indexed": true,
          "internalType": "address",
          "name": "winner",
          "type": "address"
        },
        {
          "indexed": false,
          "internalType": "uint256",
          "name": "prize",
          "type": "uint256"
        }
      ],
      "name": "RoundClosed",
      "type": "event"
    },
    {
      "anonymous": false,
      "inputs": [
        {
          "indexed": true,
          "internalType": "uint256",
          "name": "roundId",
          "type": "uint256"
        }
      ],
      "name": "RoundOpened",
      "type": "event"
    },
    {
      "inputs": [
        {
          "internalType": "address",
          "name": "winner",
          "type": "address"
        }
      ],
      "name": "closeRound",
      "outputs": [],
      "stateMutability": "nonpayable",
      "type": "function"
    },
    {
      "inputs": [
        {
          "internalType": "uint256",
          "name": "amount",
          "type": "uint256"
        }
      ],
      "name": "deposit",
      "outputs": [],
      "stateMutability": "nonpayable",
      "type": "function"
    },
    {
      "inputs": [
        {
          "internalType": "uint256",
          "name": "",
          "type": "uint256"
        },
        {
          "internalType": "uint256",
          "name": "",
          "type": "uint256"
        }
      ],
      "name": "depositors",
      "outputs": [
        {
          "internalType": "address",
          "name": "",
          "type": "address"
        }
      ],
      "stateMutability": "view",
      "type": "function"
    },
    {
      "inputs": [
        {
          "internalType": "uint256",
          "name": "",
          "type": "uint256"
        },
        {
          "internalType": "address",
          "name": "",
          "type": "address"
        }
      ],
      "name": "deposits",
      "outputs": [
        {
          "internalType": "uint256",
          "name": "",
          "type": "uint256"
        }
      ],
      "stateMutability": "view",
      "type": "function"
    },
    {
      "inputs": [
        {
          "internalType": "uint256",
          "name": "_roundId",
          "type": "uint256"
        },
        {
          "internalType": "address",
          "name": "player",
          "type": "address"
        }
      ],
      "name": "getDeposit",
      "outputs": [
        {
          "internalType": "uint256",
          "name": "",
          "type": "uint256"
        }
      ],
      "stateMutability": "view",
      "type": "function"
    },
    {
      "inputs": [
        {
          "internalType": "uint256",
          "name": "_roundId",
          "type": "uint256"
        }
      ],
      "name": "getDepositors",
      "outputs": [
        {
          "internalType": "address[]",
          "name": "",
          "type": "address[]"
        }
      ],
      "stateMutability": "view",
      "type": "function"
    },
    {
      "inputs": [],
      "name": "isOpen",
      "outputs": [
        {
          "internalType": "bool",
          "name": "",
          "type": "bool"
        }
      ],
      "stateMutability": "view",
      "type": "function"
    },
    {
      "inputs": [],
      "name": "openNewRound",
      "outputs": [],
      "stateMutability": "nonpayable",
      "type": "function"
    },
    {
      "inputs": [],
      "name": "owner",
      "outputs": [
        {
          "internalType": "address",
          "name": "",
          "type": "address"
        }
      ],
      "stateMutability": "view",
      "type": "function"
    },
    {
      "inputs": [],
      "name": "renounceOwnership",
      "outputs": [],
      "stateMutability": "nonpayable",
      "type": "function"
    },
    {
      "inputs": [],
      "name": "roundId",
      "outputs": [
        {
          "internalType": "uint256",
          "name": "",
          "type": "uint256"
        }
      ],
      "stateMutability": "view",
      "type": "function"
    },
    {
      "inputs": [],
      "name": "token",
      "outputs": [
        {
          "internalType": "contract IERC20",
          "name": "",
          "type": "address"
        }
      ],
      "stateMutability": "view",
      "type": "function"
    },
    {
      "inputs": [
        {
          "internalType": "uint256",
          "name": "",
          "type": "uint256"
        }
      ],
      "name": "totalDeposited",
      "outputs": [
        {
          "internalType": "uint256",
          "name": "",
          "type": "uint256"
        }
      ],
      "stateMutability": "view",
      "type": "function"
    },
    {
      "inputs": [
        {
          "internalType": "address",
          "name": "newOwner",
          "type": "address"
        }
      ],
      "name": "transferOwnership",
      "outputs": [],
      "stateMutability": "nonpayable",
      "type": "function"
    }
  ],
  "bytecode": "0x608060405234801561001057600080fd5b50604051610b2a380380610b2a83398101604081905261002f9161010d565b338061005557604051631e4fbdf760e01b81526000600482015260240160405180910390fd5b61005e816100bd565b50600180546001600160a01b0319166001600160a01b038316178155600060028190556003805460ff19169092179091556040517ff5d5acf597a5f9d06a24389ebea67f576c74da4d4a73b97a5dfac2452acad647908290a25061013d565b600080546001600160a01b038381166001600160a01b0319831681178455604051919092169283917f8be0079c531659141344cd1fd0a4f28419497f9722a3daafe3b4186f6b6457e09190a35050565b60006020828403121561011f57600080fd5b81516001600160a01b038116811461013657600080fd5b9392505050565b6109de8061014c6000396000f3fe608060405234801561001057600080fd5b50600436106100ea5760003560e01c806398e6b46e1161008c578063c447af9e11610066578063c447af9e146101f2578063c6c62390146101fa578063f2fde38b1461021a578063fc0c546a1461022d57600080fd5b806398e6b46e146101ac5780639f489e4e146101cc578063b6b55f25146101df57600080fd5b806368258f49116100c857806368258f4914610175578063715018a61461018a5780638cd221c9146101925780638da5cb5b1461019b57600080fd5b80633a69d7c0146100ef57806347535d7b1461011f57806353a58de11461013c575b600080fd5b6101026100fd366004610874565b610240565b6040516001600160a01b0390911681526020015b60405180910390f35b60035461012c9060ff1681565b6040519015158152602001610116565b61016761014a3660046108b2565b600460209081526000928352604080842090915290825290205481565b604051908152602001610116565b6101886101833660046108de565b610278565b005b610188610390565b61016760025481565b6000546001600160a01b0316610102565b6101bf6101ba366004610900565b6103a4565b6040516101169190610919565b6101676101da3660046108b2565b610410565b6101886101ed366004610900565b61043a565b6101886105c0565b610167610208366004610900565b60066020526000908152604090205481565b6101886102283660046108de565b61066b565b600154610102906001600160a01b031681565b6005602052816000526040600020818154811061025c57600080fd5b6000918252602090912001546001600160a01b03169150829050565b6102806106a9565b60035460ff166102c85760405162461bcd60e51b815260206004820152600e60248201526d105b1c9958591e4818db1bdcd95960921b60448201526064015b60405180910390fd5b6002546000908152600560205260409020546103135760405162461bcd60e51b815260206004820152600a6024820152694e6f20706c617965727360b01b60448201526064016102bf565b6003805460ff19169055600254600090815260066020526040902054600154610346906001600160a01b031683836106d6565b816001600160a01b03166002547f131142dcf5bce3879d37bc28b79c50d49e42533779b0eb970c8ba71434d3bf5e8360405161038491815260200190565b60405180910390a35050565b6103986106a9565b6103a26000610710565b565b60008181526005602090815260409182902080548351818402810184019094528084526060939283018282801561040457602002820191906000526020600020905b81546001600160a01b031681526001909101906020018083116103e6575b50505050509050919050565b60008281526004602090815260408083206001600160a01b03851684529091529020545b92915050565b60035460ff1661047b5760405162461bcd60e51b815260206004820152600c60248201526b149bdd5b990818db1bdcd95960a21b60448201526064016102bf565b600081116104c05760405162461bcd60e51b81526020600482015260126024820152710416d6f756e74206d757374206265203e20360741b60448201526064016102bf565b6001546104d8906001600160a01b0316333084610760565b6002546000908152600460209081526040808320338452909152812054900361052d5760025460009081526005602090815260408220805460018101825590835291200180546001600160a01b031916331790555b60025460009081526004602090815260408083203384529091528120805483929061055990849061097c565b90915550506002546000908152600660205260408120805483929061057f90849061097c565b90915550506002546040518281523391907f1599c0fcf897af5babc2bfcf707f5dc050f841b044d97c3251ecec35b9abf80b9060200160405180910390a350565b6105c86106a9565b60035460ff161561061b5760405162461bcd60e51b815260206004820152601860248201527f43757272656e7420726f756e64207374696c6c206f70656e000000000000000060448201526064016102bf565b6002805490600061062b8361098f565b90915550506003805460ff191660011790556002546040517ff5d5acf597a5f9d06a24389ebea67f576c74da4d4a73b97a5dfac2452acad64790600090a2565b6106736106a9565b6001600160a01b03811661069d57604051631e4fbdf760e01b8152600060048201526024016102bf565b6106a681610710565b50565b6000546001600160a01b031633146103a25760405163118cdaa760e01b81523360048201526024016102bf565b6106e3838383600161079c565b61070b57604051635274afe760e01b81526001600160a01b03841660048201526024016102bf565b505050565b600080546001600160a01b038381166001600160a01b0319831681178455604051919092169283917f8be0079c531659141344cd1fd0a4f28419497f9722a3daafe3b4186f6b6457e09190a35050565b61076e848484846001610802565b61079657604051635274afe760e01b81526001600160a01b03851660048201526024016102bf565b50505050565b60405163a9059cbb60e01b60008181526001600160a01b038616600452602485905291602083604481808b5af1925060016000511483166107f65783831516156107e9573d6000823e3d81fd5b6000873b113d1516831692505b60405250949350505050565b6040516323b872dd60e01b60008181526001600160a01b038781166004528616602452604485905291602083606481808c5af192506001600051148316610862578383151615610855573d6000823e3d81fd5b6000883b113d1516831692505b60405250600060605295945050505050565b6000806040838503121561088757600080fd5b50508035926020909101359150565b80356001600160a01b03811681146108ad57600080fd5b919050565b600080604083850312156108c557600080fd5b823591506108d560208401610896565b90509250929050565b6000602082840312156108f057600080fd5b6108f982610896565b9392505050565b60006020828403121561091257600080fd5b5035919050565b6020808252825182820181905260009190848201906040850190845b8181101561095a5783516001600160a01b031683529284019291840191600101610935565b50909695505050505050565b634e487b7160e01b600052601160045260246000fd5b8082018082111561043457610434610966565b6000600182016109a1576109a1610966565b506001019056fea264697066735822122013f121fc9c762fd8e3a214be99ba800d87389ef80be6a597d978b186e8fc3fb664736f6c63430008180033",
  "linkReferences": {},
  "deployedLinkReferences": {}
}